:100000000C945D000C9485000C9485000C94850084
:100010000C9485000C9485000C9485000C9485004C
:100020000C9485000C9485000C9485000C9485003C
:100030000C9485000C9485000C9485000C9485002C
:100040000C9428030C9485000C9481030C94850077
:100050000C9472030C9485000C9485000C9485001C
:100060000C9485000C94850000000008000201003B
:100070000003040700000000000000000000000072
:10008000250028002B0000000000240027002A0083
:10009000040404040404040402020202020203032E
:1000A0000303030301020408102040800102040836
:1000B0001020010204081020B90311241FBECFEF45
:1000C000D8E0DEBFCDBF11E0A0E0B1E0ECE2F9E0A6
:1000D00002C005900D92A635B107D9F721E0A6E53B
:1000E000B1E001C01D92AB3FB207E1F710E0CDE5F2
:1000F000D0E004C02197FE010E948E04CC35D107C8
:10010000C9F70E94D7030C9494040C94000090E06B
:10011000FC01EC55FF4F249180579F4FFC018491C7
:10012000882399F090E0880F991FFC01EA57FF4F50
:10013000A591B491FC01E458FF4F859194918FB73C
:10014000F894EC91E22BEC938FBF089590E0FC01C2
:10015000E859FF4F2491FC01EC55FF4F3491FC010D
:10016000E057FF4FE491EE23C9F0222339F023300A
:1001700001F1A8F4213019F1223029F1F0E0EE0F5D
:10018000FF1FE458FF4FA591B4918FB7F894EC91FD
:10019000611126C030953E233C938FBF08952730D0
:1001A000A9F02830C9F0243049F7809180008F7D74
:1001B00003C0809180008F7780938000DFCF84B56B
:1001C0008F7784BDDBCF84B58F7DFBCF8091B0006E
:1001D0008F778093B000D2CF8091B0008F7DF9CF20
:1001E0003E2BDACF3FB7F8948091DF019091E00188
:1001F000A091E101B091E20126B5A89B05C02F3F77
:1002000019F00196A11DB11D3FBFBA2FA92F982F3C
:100210008827BC01CD01620F711D811D911D42E037
:10022000660F771F881F991F4A95D1F70895AF92DF
:10023000BF92CF92DF92EF92FF920F931F93CF93D3
:10024000DF936C017B018B01040F151FEB015E0135
:10025000AE18BF08C017D10759F06991D601ED91CA
:10026000FC910190F081E02DC6010995892B79F769
:10027000C501DF91CF911F910F91FF90EF90DF901B
:10028000CF90BF90AF900895089590E080E00895DA
:10029000FC018191909137019923E1F3109237018C
:1002A0008093C60080818111F4CF8091370188232B
:1002B000E1F3109237011092C6000895CF93DF93B7
:1002C000EC0160E08E810E94A60061E08E810E94B8
:1002D000A60060E08E810E94A6008BE891E0019765
:1002E000F1F7DF91CF910895CF92DF92EF92FF92D5
:1002F0000F931F93CF93DF936C017C0187E0E80E8F
:10030000F11CD0E0C0E0062F10E0B8010C2E02C0B6
:10031000759567950A94E2F76170F70181917F0105
:100320000E94A6002196C430D10579F7C601DF915D
:10033000CF911F910F91FF90EF90DF90CF900C9491
:100340005E01CF92DF92EF92FF920F931F93CF93B4
:10035000DF93EC01F62E642F8C810E94A6008D8124
:100360008F3F19F060E00E94A6000F2D10E08F85EE
:1003700084FF25C06E0187E0C80ED11CF12CE12C52
:10038000B8010E2C02C0759567950A94E2F761706A
:10039000F60181916F010E94A600FFEFEF1AFF0A9C
:1003A00088E0E816F10461F7CE01DF91CF911F914B
:1003B0000F91FF90EF90DF90CF900C945E01B80109
:1003C00084E0759567958A95E1F7CE010E947401E6
:1003D0006F2DCE01DF91CF911F910F91FF90EF9084
:1003E000DF90CF900C94740140E0682F83EE91E091
:1003F0000C94A10181E00E94F4018BE39FE101973D
:10040000F1F70895CF93DF93823029F49091F201B0
:1004100098609093F2018093F6011092F70180E4C6
:100420008093F80180E18093F90180E58093FA01DF
:100430008091E7010E9487008091E8018F3F11F0D1
:100440000E9487008091E9010E948700C3EED1E0FD
:100450009E01235E31408091F20184FD0AC084E058
:1004600090E02196281739073CF48E810E9487007E
:10047000EFCF88E090E0F5CF8BE39DE00197F1F7B7
:1004800060E08091E7010E94A60060E08091E901B0
:100490000E94A6008091E8018F3F19F060E00E9461
:1004A000A6008091F20184FD34C063E083EE91E008
:1004B0000E947401CBE4D6E4CE010197F1F763E02A
:1004C00083EE91E00E9474012197F1F763E083EEDF
:1004D00091E00E94740183E592E00197F1F762E0F8
:1004E00083EE91E00E9474018091F20180620E948B
:1004F000F40184E08093F3018CE00E94F4010E94F7
:10050000FA0182E08093F40186E0DF91CF910C94B0
:10051000F40180620E94F4018BE496E40197F1F704
:100520008091F20180620E94F40183E592E00197DC
:10053000F1F78091F20180620E94F401D5CF41E091
:100540000E94A10181E090E008950F931F93CF9343
:10055000DF938B0128E0829FC001112480640E94F8
:10056000F401E801085F1F4F699183EE91E00E945A
:100570009F02C017D107C1F7DF91CF911F910F9153
:1005800008954B990DC085B194E0892785B92FEF67
:1005900081EE94E0215080409040E1F700C00000DF
:1005A00008950F931F93CF93DF93182FC62F0E94A8
:1005B000FA0189B1082F087083FF12C085B194E059
:1005C000892785B92FEF81EE94E02150804090403B
:1005D000E1F700C00000DF91CF911F910F910895C6
:1005E000DC2FE1E08091F6018111E0E0E195F0E09F
:1005F000ED51FE4F84898C0F800F80680E94F401BA
:10060000612F83EE91E00E949F020E5F003141F75F
:10061000C05FE091F601E230C8F4E150F0E0ED5146
:10062000FE4F84898D0F80680E94F401612F83EE54
:1006300091E00E949F02DE5FCD13EBCF2FEF89E6A2
:1006400098E1215080409040E1F7C3CFE1E0E6CF50
:100650001F920F920FB60F9211242F933F938F93F7
:100660009F93AF93BF938091DB019091DC01A091A8
:10067000DD01B091DE013091DA0123E0230F2D3747
:1006800058F50196A11DB11D2093DA018093DB017D
:100690009093DC01A093DD01B093DE018091DF0136
:1006A0009091E001A091E101B091E2010196A11DBC
:1006B000B11D8093DF019093E001A093E101B0931D
:1006C000E201BF91AF919F918F913F912F910F9038
:1006D0000FBE0F901F90189526E8230F0296A11DBC
:1006E000B11DD2CF1F920F920FB60F9211248F938C
:1006F00081E0809337018F910F900FBE0F901F9074
:1007000018951F920F920FB60F9211248F939F93FB
:10071000EF93FF93E091D801F091D9018091C60049
:10072000E85AFE4F808380915601909157010196BF
:1007300090935701809356018091D8019091D901EF
:1007400001969093D9018093D8018091D80190911E
:10075000D9018038910520F01092D9011092D8016A
:10076000FF91EF919F918F910F900FBE0F901F906F
:100770001895E3EEF1E0138212828CE391E091830D
:10078000808388E084838FEF858389E0868384E09B
:10079000878385E0808786E0818787E0828713866C
:1007A000148615861686178681E00C940202109234
:1007B000C50087E68093C4008091C100886D809356
:1007C000C100789482E00E9402020E94FA0167E16F
:1007D00071E080E00E94A5026FE071E081E00E947C
:1007E000A50267E071E082E00E94A50260E071E08E
:1007F00083E00E94A50284B18C6384B985B18C63C7
:1008000085B98AB18AB90E94C10270E060E090E0C7
:1008100080E00E94D1020E94C10270E060E081E0AD
:1008200090E00E94D1020E94C10261E070E082E08B
:1008300090E00E94D1020E94C10261E070E083E07A
:1008400090E00E94D10284E491E00E9448018091EE
:100850007A00806480937A0080917A0086FDFCCFD4
:1008600080917800909179009C01255631092539B5
:10087000310508F44AC0265931092336310508F4F8
:1008800047C026503F4F2336310578F02E55314072
:10089000273C310550F087529240873C9105D8F5AE
:1008A0008FE191E00E944801AECF85E291E00E9485
:1008B000480170E060E081E090E00E94D1020E9477
:1008C000F2004B015C0188EEC82E83E0D82EE12CAB
:1008D000F12C0E94F200681979098A099B09683E87
:1008E000734081059105A8F321E0C21AD108E108FF
:1008F000F10888EE880E83E0981EA11CB11CC1147B
:10090000D104E104F10429F77ECF8BE291E0CACF54
:1009100081E391E0C7CF8CE491E0C4CFEE0FFF1FDD
:0C0920000590F491E02D0994F894FFCFAD
:10092C0000040E150C0A1101050E140C040A090022
:10093C0002070A07020508100A07020302050970DC
:10094C006C61790D0A73746F700D0A6E6578740D95
:10095C000A707265760D0A01000000009F021701F3
:10096C004501440173746172740D0A004E6F20626C
:06097C007574746F6E003B
:00000001FF
